:100000000C949C1C0C94DC1C0C94DC1C0C94DC1CD0
:100010000C94DC1C0C94DC1C0C94DC1C0C94DC1C80
:100020000C94DC1C0C94DC1C0C94DC1C0C94DC1C70
:100030000C94DC1C0D9433100C94DC1C0C94DC1C14
:100040000C94DC1C0C945EBD0C94DC1C0C94DC1C2D
:100050000C94DC1C0C949EBC0C94DC1C0D94E90FDD
:100060000C94DC1C0C949B8E0C94918E0C94DC1CD8
:100070000C94DC1C0C94DC1C0C94DC1C0C94DC1C20
:100080000C94DC1C0C94DC1C0C94DC1C0C94DC1C10
:100090000C94DC1C0C94DC1C0C94DC1C0C94DC1C00
:1000A0000C94DC1C0C94DC1C0C94DC1C0C94DC1CF0
:1000B0000C94DC1C0C94DC1C0C94DC1C0C94DC1CE0
:1000C0000C94DC1C0C94DC1C0C94DC1C0C94DC1CD0
:1000D0000C94DC1C0C94DC1C0C94DC1C0C94DC1CC0
:1000E0000C94DC1C084AD73B3BCE016E84BCBFFDA0
:1000F000C12F3D6C74319ABD56833DDA3D00C77FF8
:1001000011BED9E4BB4C3E916BAAAABE0000008090
:100110003F05A84CCDB2D44EB93836A9020C50B91F
:10012000918688083CA6AAAA2ABE000000803F004B
:100130000D94CB0E0D94280F0D94870F0D94CE0EB9
:100140000D94F40E0D94391B0D94C70E0D94E60E0C
:100150000D94A80E0D94C30E0D94EC0E0D94E20EAA
:100160000D947C0F0D94F00E0D94D40E0D945D0F34
:100170000D94DE0E0D94FA0E0D946C0F0D94AD0ED1
:100180000D940D0F0D94571B0D94720F0D94FE0ED0
:100190000D94BF0E0D94D80E0D94610F4E414E4933
:1001A0004E495459494E46CDCCCC3D0AD7233C1735
:1001B000B7D13877CC2B329595E6241FB14F0A0082
:1001C0000020410000C84200401C4620BCBE4CCA72
:1001D0001B0E5AAEC59D7400407A10F35A00A072EF
:1001E0004E18090010A5D4E80000E8764817000072
:1001F000E40B54020000CA9A3B000000E1F5050040
:100200000080969800000040420F000000A0860188
:10021000000000102700000000E803000000006458
:1002200000000000000A00000000000100000000C3
:10023000002C76D888DC674F0823DFC1DFAE59E198
:10024000B1B796E5E3E453C63AE651997696E8E607
:10025000C28426EB898C9B62ED407C6FFCEFBC9CDA
:100260009F40F2BAA56FA5F490055A2AF75C936BEC
:100270006CF9676DC11BFCE0E40D47FEF520E6B5A7
:1002800000D0ED902E0300943577050080841E0881
:100290000000204E0A000000C80C333333330F989F
:1002A0006E12831141EF8D2114893BE65516CFFE66
:1002B000E6DB18D1844B381BF77C1D901DA4BBE4F2
:1002C00024203284725E228100C9F124ECA1E53D34
:1002D00027554E4C4F41442046494C414D454E54C4
:1002E000004C4F41442046494C414D454E54004638
:1002F000494C414D454E54204348414E474500200E
:10030000204D323036205800486F6D65206F66668C
:10031000736574004361703A00434F4E4649475F2E
:100320004558504F5254004D4541545041434B00A5
:10033000434F4F4C45525F54454D504552415455E3
:100340005245004348414D4245525F54454D50454A
:100350005241545552450042414259535445505020
:10036000494E470041524353004D4F54494F4E5F51
:100370004D4F44455300544845524D414C5F5052F7
:100380004F54454354494F4E00455854454E4445FB
:10039000445F4D323000435553544F4D5F464952F0
:1003A0004D574152455F55504C4F4144004C464ECD
:1003B0005F5752495445004C4F4E475F46494C45A4
:1003C0004E414D45004155544F5245504F52545F98
:1003D00053445F5354415455530053445F5752495B
:1003E000544500524550454154004D554C54495FC9
:1003F000564F4C554D4500534443415244005052D2
:100400004F4D50545F535550504F525400484F5326
:10041000545F414354494F4E5F434F4D4D414E440D
:100420005300454D455247454E43595F5041525345
:10043000455200434153455F4C494748545F42523F
:10044000494748544E45535300544F47474C455F26
:100450004C494748545300534F4654574152455F07
:10046000504F574552004255494C445F5045524306
:10047000454E54004C4556454C494E475F44415407
:1004800041005A5F50524F42450052554E4F55540D
:10049000004155544F4C4556454C005052494E541E
:1004A0005F4A4F420050524F475245535300415507
:1004B000544F5245504F52545F54454D5000415592
:1004C000544F5245504F52545F504F5300564F4C6B
:1004D000554D455452494300454550524F4D0042F9
:1004E000494E4152595F46494C455F5452414E5323
:1004F0004645520053455249414C5F584F4E5F5854
:100500004F4646004649524D574152455F4E414D78
:10051000453A4D61726C696E206275676669782D27
:10052000322E312E7820284A756C2020352032302A
:1005300032322031393A35363A34322920534F5548
:100540005243455F434F44455F55524C3A67697487
:100550006875622E636F6D2F4D61726C696E4669AE
:10056000726D776172652F4D61726C696E205052A9
:100570004F544F434F4C5F56455253494F4E3A31BB
:100580002E30204D414348494E455F545950453A1D
:1005900054494E41322045585452554445525F43C8
:1005A0004F554E543A3120555549443A6365646578
:1005B000326132662D343161322D343734382D3981
:1005C0006231322D633535633632663336376666CF
:1005D0000A0020204D3235302043004C4344204354
:1005E0006F6E747261737400203B0020204D3835AB
:1005F000312058005A2D50726F6265204F66667325
:100600006574002569730025696D202569730025CF
:1006100069682025696D2025697300256964202596
:1006200069682025696D2025697300256979202571
:100630006964202569682025696D20256973004358
:100640006F6F6C696E672E2E2E004531202553008A
:10065000206661696C65642120426164206865617F
:100660007465722069640A00504944204175746FB2
:1006700074756E650023646566696E652044454641
:1006800041554C545F004B6420004B6920004B7077
:1006900020002066696E6973686564212050757456
:1006A00020746865206C617374204B702C204B693A
:1006B00020616E64204B6420636F6E7374616E748E
:1006C000732066726F6D2062656C6F7720696E743F
:1006D0006F20436F6E66696775726174696F6E2E05
:1006E000680A00504944204175746F74756E650046
:1006F000206661696C6564212074696D656F75742D
:100700000A00504944204175746F74756E6500206D
:100710006661696C6564212054656D7065726174F1
:1007200075726520746F6F20686967680A005049A8
:1007300044204175746F74756E65005049442043C0
:1007400079636C65730025532025692F2569002086
:100750004B643A2000204B693A2000204B703A202D
:100760000020436C617373696320504944200A0080
:100770002054753A2000204B753A2000206D617896
:100780003A2000206D696E3A200020643A20002053
:10079000626961733A200048656174696E672E2E44
:1007A0002E002073746172740A0050494420417510
:1007B000746F74756E6500206661696C65642120D4
:1007C00054656D706572617475726520746F6F2009
:1007D000686967680A00504944204175746F7475F0
:1007E0006E6500504944204175746F74756E6500E4
:1007F0004572723A207574663820666F6E74206E8A
:100800006F7420696E697469616C697A65642E0021
:100810004572723A207574663820666F6E74206E69
:100820006F7420696E697469616C697A65642E0001
:100830004572723A207574663820666F6E74206E49
:100840006F7420696E697469616C697A65642E00E1
:1008500042656400456E636C6F7375726500256850
:10086000753A25303268750025303268753A253082
:10087000326875002530326875272530326875007A
:10088000256875642025303268753A2530326875E0
:100890000020202020202020002020202000657221
:1008A00072001FE0201020102010102010202010B7
:1008B000201030300840048003001FE03FF03FF07C
:1008C0003FF01FE01FE03FF03FF03FF00FC0078018
:1008D00003003FFFF038007030FC3020FC1020781F
:1008E000102030102C00D02E31D02F7BD02F7BD079
:1008F0002E31D02C00D020301020781020FC103069
:10090000FC303800703FFFF03FFFF0380070318658
:10091000302387102787902F87D02F03D0203010C7
:100920002078102078102030102F03D02F87D02768
:1009300087902387103186303800703FFFF0507267
:10094000696E742041626F72746564004D323520A7
:10095000500A4D32340050617573696E672E2E2E29
:10096000004D323400454550524F4D20566572734C
:10097000696F6E204572726F7200454550524F4D3F
:1009800020496E646578204572726F72004545504B
:10099000524F4D20435243204572726F72003F0008
:1009A00049676E6F726500526573657400496E69C0
:1009B0007469616C697A6520454550524F4D004C11
:1009C0006F6164206D6D00556E6C6F6164206D6D9C
:1009D0000046696C2E204469612E004520696E2016
:1009E0006D6D5E330020082046616374002008208E
:1009F0004D6178002008204D696E004F6666004FFB
:100A00006E004175746F74656D70004D696E205491
:100A1000726176656C205370656564004D696E2067
:100A200056656C6F63697479004D6178204020537E
:100A300070656564004D6178204520416363656C95
:100A4000004D6178204020416363656C0054726101
:100A500076656C20416363656C00526574726163F6
:100A60007420416363656C00416363656C00507280
:100A70006F6265205A204F66667365740050726F0E
:100A800062652059204F66667365740050726F620C
:100A9000652058204F666673657400402073746546
:100AA00070732F6D6D00416476616E6365642053D1
:100AB000657474696E6773003F0043616E63656CB3
:100AC00000496E6974004D34323800496E697469AA
:100AD000616C697A6520454550524F4D0046696CFE
:100AE000616D656E740054656D70657261747572C8
:100AF000650053746570732F6D6D0050726F626581
:100B0000204F666673657473004A756E6374696F0F
:100B10006E2044657600416363656C65726174693B
:100B20006F6E004D617820537065656420286D6D8F
:100B30002F73290053657420486F6D65204F6666DA
:100B40007365747300436F6E66696775726174696B
:100B50006F6E0053746F72652053657474696E67AD
:100B600073004C6F61642053657474696E67730021
:100B700050726F6265205A204F6666736574004F2D
:100B80006666004F6E00426564204C6576656C6950
:100B90006E67004C6576656C2042656400473239AB
:100BA0004E00473239004175746F20486F6D650003
:100BB0004D6F74696F6E004E6F7A7A6C6500466196
:100BC0006E20537065656400436F6E666967757269
:100BD0006174696F6E00526573746F72652044654D
:100BE0006661756C7473004C6F6164205365747436
:100BF000696E67730053746F72652053657474690E
:100C00006E67730050726568656174202420436FBD
:100C10006E66004F6666004F6E00506F77657220FB
:100C20004F7574616765004C434420436F6E747266
:100C30006173740050726F6265205A204F6666734C
:100C4000657400416476616E6365642053657474F5
:100C5000696E6773004D61696E004D373032205404
:100C60002564004D36303020423020542564004D3C
:100C7000373032203B2564004D3730312054256415
:100C8000004D373032004D373031004D3630302096
:100C90004230004D61696E00436F6E74696E756518
:100CA000005075726765206D6F726500524553552F
:100CB0004D45204F5054494F4E533A005052494EE3
:100CC00054205041555345440020204E6F7A7A6C91
:100CD000653A20005061726B696E672E2E2E0000FF
:100CE000005761697420666F720066696C616D659A
:100CF0006E74206368616E676500746F2073746141
:100D00007274005761697420666F720066696C6165
:100D10006D656E7420756E6C6F616400004E6F7A45
:100D20007A6C652068656174696E6700506C6561F6
:100D3000736520776169742E2E2E000050726573E2
:100D40007320627574746F6E00746F2068656174CF
:100D5000206E6F7A7A6C650000496E73657274203C
:100D600066696C616D656E7400616E642070726599
:100D7000737320627574746F6E00746F20636F6E8E
:100D800074696E7565005761697420666F720066DC
:100D9000696C616D656E74206C6F616400005072E7
:100DA00065737320427574746F6E00746F20726582
:100DB00073756D65207072696E7400005761697497
:100DC00020666F72207072696E7400746F20726595
:100DD00073756D652E2E2E00005761697420666F45
:100DE000720066696C616D656E74207075726765FE
:100DF00000003E2000256C642E25696D0045787446
:100E0000727564656420546F74616C003E20004C00
:100E10006F6E67657374204A6F622054696D650058
:100E20003E20005072696E742054696D6500436FF6
:100E30006D706C65746564003A20005072696E7460
:100E400020436F756E74003A200052756E617761B1
:100E5000792057617463683A204F4E004D617820C5
:100E600054656D7000323430004D696E2054656DEC
:100E70007000350045313A204550434F5320313002
:100E8000304B005053550047656E657269630050E2
:100E9000726F746F636F6C00312E30004261756445
:100EA0000032353030303000574545444F2036321F
:100EB0004100332D506F696E74204C6576656C6906
:100EC0006E67004578747275646572730031006DE9
:100ED00061726C696E66772E6F72670054494E417D
:100EE0003200323032322D30372D303500627567A6
:100EF0006669782D322E312E78004D61726C696EE4
:100F0000005072696E74657220537461747300547A
:100F10006865726D6973746F727300426F61726499
:100F200020496E666F005072696E74657220496E5A
:100F3000666F004D61696E004D3130303000537482
:100F40006F70205072696E7400526573756D652004
:100F50005072696E7400506F776572204F757461BE
:100F60006765003F004261636B0053746F70004E11
:100F70006F204D65646961005072696E74206672FD
:100F80006F6D204D65646961004368616E6765201F
:100F90004D65646961004D32310041626F757420A6
:100FA0005072696E746572004368616E67652046B1
:100FB000696C616D656E7400436F6E66696775720A
:100FC0006174696F6E0054656D70657261747572DD
:100FD00065004D6F74696F6E00526573756D6520A5
:100FE0005072696E740054756E650053746F702092
:100FF0005072696E74005061757365205072696E2D
:101000007400496E666F2053637265656E003F0021
:101010005374617274205072696E740043616E6320
:10102000656C005072696E740043616E6E6F74205F
:10103000656E746572207375626469723A2000028D
:10104000202E2E004D61696E002100486F74656E80
:101050006420746F6F20636F6C64004261636B0087
:1010600050726F63656564004D6F766520457874D6
:101070007275646572004D6F74696F6E00446973B8
:1010800061626C65205374657070657273004D38D1
:1010900034004D34382050726F626520546573748B
:1010A000004732384F0A4D34382050313000426505
:1010B00064204C6576656C696E67004175746F20BD
:1010C000486F6D6500473238004D61696E00436FAF
:1010D0006F6C646F776E0050726568656174202470
:1010E0000046616E205370656564004E6F7A7A6CBD
:1010F00065004D61696E00426162797374657020AC
:101100005A004261627973746570204000466C6FCA
:10111000770046616E205370656564004E6F7A7A81
:101120006C65005370656564004D61696E00000C6C
:101130000F00FE07022503BB017FFE08FE08FE0527
:10114000080806000040F0C888889878100508084C
:10115000060000C0F88888888888F805050506001C
:10116000012030F830200508080600002070F82023
:10117000202020E00509090600FF2070A8A8B888F3
:10118000887020070505070001D86C366CD8050962
:10119000090600FFF8A88888888888A8F8050A0A40
:1011A0000600FE205050505088A8A8887003030302
:1011B00006000340A040FFFFFFFFFFFFFFFFFFFF10
:1011C000FFFFFFFFFFFFFFFFFFFFFFFF0000000625
:1011D00005FF0107070602008080808080008003F1
:1011E0000303060105A0A0A005060606000050F8AE
:1011F0005050F8500509090600FF2070A8A070287B
:10120000A87020050707060000C8C810204098985D
:1012100005070706000040A0A040A890680103034E
:101220000602058080800309090601FF20404080F6
:1012300080804040200309090601FF8040402020B3
:101240002040408005070706000020A8702070A8F5
:10125000200505050600012020F8202002030306D2
:1012600001FFC04080050101060003F802020206EA
:101270000100C0C00507070600000810102040400C
:1012800080050707060000708898A8C888700307C3
:101290000706010040C040404040E0050707060047
:1012A00000708808102040F8050707060000F808BD
:1012B000103008887005070706000010305090F8BD
:1012C0001010050707060000F880F0080888700570
:1012D0000707060000304080F08888700507070681
:1012E0000000F808101020202005070706000070F5
:1012F00088887088887005070706000070888878DD
:10130000081060020505060100C0C000C0C002064A
:10131000060601FFC0C000C04080030505060101AC
:101320002040804020050303060002F800F8030572
:101330000506010180402040800507070600007077
:101340008810202000200507070600007088B8A834
:10135000B88070050707060000708888F8888888BC
:10136000050707060000F04848704848F0050707E1
:1013700006000070888080808870050707060000DE
:10138000F04848484848F0050707060000F8808004
:10139000F08080F8050707060000F88080F0808064
:1013A0008005070706000070888080988870050710
:1013B00007060000888888F88888880307070601E0
:1013C00000E04040404040E00507070600003810BC
:1013D00010101090600507070600008890A0C0A0BC
:1013E0009088050707060000808080808080F805CF
:1013F000070706000088D8A8888888880507070698
:1014000000008888C8A8988888050707060000702B
:10141000888888888870050707060000F08888F0AB
:1014200080808005070706000070888888A890687B
:10143000050707060000F08888F0A09088050707D8
:101440000600007088807008887005070706000095
:10145000F820202020202005070706000088888823
:10146000888888700507070600008888888850509B
:101470002005070706000088888888A8A850050767
:101480000706000088885020508888050707060056
:101490000088885020202020050707060000F80853
:1014A00010204080F80309090601FFE08080808059
:1014B000808080E005070706000080404020101073
:1014C000080309090601FFE020202020202020E059
:1014D0000503030600052050880501010600FEF8FB
:1014E0000303030601058040200505050600007082
:1014F000087888780507070600008080F0888888CB
:10150000F005050506000070808088700507070655
:1015100000000808788888887805050506000070AE
:1015200088F08070050707060000304840E0404022
:10153000400507070600FE70888888780870050750
:10154000070600008080F088888888030707060166
:10155000004000C0404040E00409090601FE1000C0
:10156000301010101090600507070600008080887A
:1015700090E09088030707060100C04040404040CB
:10158000E0050505060000D0A8A8A8A805050506E1
:101590000000B0C8888888050505060000708888A6
:1015A00088700507070600FEF0888888F0808005AF
:1015B00007070600FE78888888780808050505066C
:1015C0000000B0C8808080050505060000788070A6
:1015D00008F00507070600002020F8202020180545
:1015E000050506000088888898680505050600003E
:1015F00088888850200505050600008888A8A8501E
:1016000005050506000088502050880507070600DC
:10161000FE88888850204080050505060000F810E7
:101620002040F80309090601FF2040404080404067
:1016300040200109090602FF808080808080808030
:10164000800309090601FF8040404020404040805F
:1016500005030306000248A890FF44455441494C45
:1016600000434F4D4D554E49434154494F4E004460
:10167000525952554E004552524F525300494E4610
:101680004F004543484F004572726F722077726970
:1016900074696E6720746F20454550524F4D210A82
:1016A0000053544F505045442E20005072696E74C0
:1016B00065722073746F7070656420647565207442
:1016C0006F206572726F72732E204669782074687D
:1016D00065206572726F7220616E6420757365207B
:1016E0004D39393920746F20726573746172742EAC
:1016F000202854656D706572617475726520697318
:101700002072657365742E2053657420697420619E
:10171000667465722072657374617274696E67298C
:101720000A004E6F20436865636B73756D2077699F
:101730007468206C696E65206E756D6265722C2010
:101740004C617374204C696E653A20004E6F2043E3
:101750006865636B73756D2077697468206C696E5A
:1017600065206E756D6265722C204C617374204C1F
:10177000696E653A2000636865636B73756D206DF3
:1017800069736D617463682C204C617374204C69BB
:101790006E653A20004C696E65204E756D6265720B
:1017A000206973206E6F74204C617374204C696ED5
:1017B00065204E756D6265722B312C204C617374FF
:1017C000204C696E653A20004D313130005365720E
:1017D00069616C20737461747573206D69736D61D8
:1017E0007463680A005344207265616420657272F4
:1017F0006F720A00746F6F206D75636820696E6187
:1018000063746976652074696D65202D2063757237
:1018100072656E7420636F6D6D616E643A20002195
:1018200021204B494C4C20636175736564206279BB
:101830002000627573793A20706175736564206663
:101840006F7220696E7075740A00627573793A2040
:1018500070617573656420666F7220757365720AB6
:1018600000627573793A2070726F63657373696E85
:10187000670A004D656469612052656D6F76656425
:10188000004D6564696120496E736572746564001A
:101890004D313030305300506C65617365205265B6
:1018A000736574005052494E5445522048414C547F
:1018B00045440025533A202553004B494C4C4544A0
:1018C0002E20005072696E7465722068616C7465B8
:1018D000642E206B696C6C28292063616C6C6564D4
:1018E000210A00006563686F3A004572726F723AB0
:1018F000004F4646004F4E00205800202864697370
:1019000061626C6564290A00F8184B37483745371F
:1019100041424C2041646A7573746D656E74002099
:1019200028656E61626C6564290A0041626F7665A4
:101930000053616D65205A2061730042656C6F77BA
:10194000004175746F20426564204C6576656C6952
:101950006E673A2033504F494E5400204E6F7A7ACA
:101960006C65290A00202620002D43656E7465727F
:10197000002D46726F6E74002D4261636B0020284B
:10198000416C69676E656420576974680020284D52
:101990006964646C650020284C65667400202852D8
:1019A000696768740050726F6265204F6666736580
:1019B0007420580050726F62653A204649585F4D56
:1019C0004F554E5445445F50524F42450A004D61B9
:1019D0006368696E6520547970653A20436172745A
:1019E000657369616E0A0072657365745F62656430
:1019F0005F6C6576656C0A00203A204C6576656CF4
:101A0000696E67204F4E0A00202063757272656E02
:101A1000745F706F736974696F6E3D00203A204C7B
:101A20006576656C696E67204F46460A0020206324
:101A3000757272656E745F706F736974696F6E3DF5
:101A400000486F74656E6420746F6F20636F6C6400
:101A50000A00507265737320627574746F6E20741F
:101A60006F20726573756D650A00496E73657274D7
:101A70002066696C616D656E7420616E64207072A1
:101A800065737320627574746F6E0A0050726573AB
:101A90007320627574746F6E20746F206865617452
:101AA000206E6F7A7A6C650A003E3E3E003C3C3CFC
:101AB00000203A2047323920636F72726563746583
:101AC000642058595A0A00202063757272656E743A
:101AD0005F706F736974696F6E3D00202044697395
:101AE00063726570616E6379200020204D617472AD
:101AF0006978205A0050726F626564205A00203A5B
:101B00002047323920756E636F7272656374656445
:101B10002058595A0A00202063757272656E745FEE
:101B2000706F736974696F6E3D000A0A42656420C4
:101B30004C6576656C20436F7272656374696F6E75
:101B4000204D61747269783A00203A203E2070720C
:101B50006F62696E6720636F6D706C6574650A00F3
:101B6000202063757272656E745F706F736974693B
:101B70006F6E3D0050726F62696E6720506F696EC4
:101B8000740025532025692F33002F332E0A00506F
:101B9000726F62696E6720706F696E7420003E20FC
:101BA000332D706F696E74204C6576656C696E6755
:101BB0000A00202844525952554E290047323920F4
:101BC0004175746F20426564204C6576656C696E62
:101BD00067003F2856296572626F7365206C6576D1
:101BE000656C20696D706C61757369626C65202825
:101BF000302D34292E0A003E204175746F2D6C65FE
:101C000076656C206E6F74206E65656465642C204B
:101C1000736B69700A0047323900446576696174F4
:101C2000696F6E0025533A2025730046696E69730B
:101C3000686564210A003A207A3A2000206F662005
:101C400000476F696E6720746F3A20580043570A47
:101C500000206469723A0020616E676C653A005337
:101C600074617274207261646975733A004D34381E
:101C700020506F696E740025533A2025642F256427
:101C800000506F736974696F6E696E672074686560
:101C90002070726F62652E2E2E0A003F4C656773AE
:101CA000206F66206D6F76656D656E7420696D704E
:101CB0006C61757369626C652028302D3135292E71
:101CC0000A003F2028582C5929206F7574206F6610
:101CD00020626F756E64732E0A0050726F62652009
:101CE0006F7574206F6620626F756E6473003F536A
:101CF000616D706C652073697A65206E6F742070F9
:101D00006C61757369626C652028342D3530292E1D
:101D10000A004D3438205A2D50726F62652052658A
:101D2000706561746162696C69747920546573745B
:101D30000A003F2856296572626F7365206C6576CC
:101D4000656C20696D706C61757369626C652028C3
:101D5000302D34292E0A005374616E646172642040
:101D6000446576696174696F6E3A20002052616E35
:101D700067653A2000204D61783A2000204D696E59
:101D80003A2000205369676D613A20004D65616E0D
:101D90003A200020440020204D32303020530020D3
:101DA0002844697361626C6564293A0046696C6114
:101DB0006D656E742073657474696E67730020209E
:101DC0004D3230312058004D617820416363656C9D
:101DD00065726174696F6E2028756E6974732F73F4
:101DE00032290020204D3230332058004D617820B8
:101DF0006665656472617465732028756E697473B5
:101E00002F73290020520020204D32303420500002
:101E1000416363656C65726174696F6E2028756ECD
:101E20006974732F7332292028503C7072696E7464
:101E30002D616363656C3E20523C72657472616310
:101E4000742D616363656C3E20543C7472617665E9
:101E50006C2D616363656C3E2900204A00205400AC
:101E600020530020204D32303520420041647661FD
:101E70006E6365642028423C6D696E5F7365676DB3
:101E8000656E745F74696D655F75733E20533C6D5C
:101E9000696E5F66656564726174653E20543C6D71
:101EA000696E5F74726176656C5F666565647261A8
:101EB00074653E204A3C6A756E635F6465763E29B0
:101EC0000020440020490020204D333031205000B4
:101ED000486F74656E642050494400203B002055D3
:101EE0000020204D363033204C0046696C616D6512
:101EF0006E74206C6F61642F756E6C6F6164004D41
:101F0000323453256C6454256C64004739322E39C1
:101F10004525730047314625640047315A257346ED
:101F200036303000473158257359257346333030E9
:101F300030004D313036502569532569004D313020
:101F400039532569004D323030442573004739320A
:101F50002E395A2573004D3432305325635A257378
:101F60000047323852300A47315A257346313230F1
:101F700030004739322E394530004D313039532544
:101F800069004D343230205330205A3000203B203D
:101F90000020204D343133205300506F7765722D6F
:101FA0006C6F7373207265636F7665727900204978
:101FB0006E76616C696420657874727564657220F0
:101FC0000047322F47332062616420706172616D77
:101FD00065746572730A00536C6565702E2E2E0051
:101FE0005261697365205A20286265666F726520A8
:101FF000686F6D696E672920627920003E20686FE6
:102000006D696E67206E6F74206E65656465642C03
:1020100020736B69700A0047323800205A3A20005A
:1020200020593A200042656420583A2000436C69E8
:10203000636B20746F20526573756D652E2E2E00B4
:102040004E6F204D6F76652E00456E642066696C7C
:1020500065206C6973740A00426567696E20666961
:102060006C65206C6973740A004E6F206D6564693D
:10207000610A00286E6F2066696C652900437572DD
:1020800072656E742066696C653A20005344207056
:1020900072696E74696E67206279746520004E6F94
:1020A00074205344207072696E74696E670A005020
:1020B00072696E742074696D653A20000A53746108
:1020C00074733A2046696C616D656E742075736532
:1020D000643A20002C204C6F6E67657374206A6F21
:1020E000623A2000546F74616C2074696D653A2007
:1020F0000053746174733A20002C204661696C654A
:10210000643A20002C2046696E69736865643A2041
:10211000005072696E74733A200053746174733A9C
:1021200020006F6B006F66660082167D1676166F54
:102130001661165A1644454255473A004D31313220
:102140002053687574646F776E004D3131332053BE
:102150000054494E4132204F46462E002F2F004D4D
:1021600031343520533C696E6465783E206F757458
:10217000206F662072616E67652028302D31290A34
:10218000003F4A206F7574206F662072616E67652C
:102190002028302E303120746F20302E33290A0051
:1021A0003B200020204D61783A2000200020204D67
:1021B000696E3A2000203B200020204D3231312032
:1021C000530046523A0020466C6F773A200064690B
:1021D0007300656E0043290A0061626C6564202803
:1021E0006D696E2074656D702000436F6C642065AE
:1021F000787472756465732061726520004265644D
:10220000204C6576656C696E6720004661696C6577
:102210006420746F20656E61626C65204265642085
:102220004C6576656C696E670A00426564204C6592
:1022300076656C20436F7272656374696F6E204DB2
:1022400061747269783A004F6666736574732041F1
:1022500070706C696564004572723A20546F6F202B
:102260006661722100546F6F206661722066726F22
:102270006D207265666572656E636520706F696E4C
:10228000740A00454550524F4D204F4B0A00290A11
:102290000020746F20003F5A206F7574206F6620F5
:1022A00072616E6765202800290A0020746F200083
:1022B0003F59206F7574206F662072616E676520CC
:1022C000282D00290A0020746F20003F58206F75C8
:1022D00074206F662072616E676520282D004D386E
:1022E0003400446F6E65207072696E74696E672089
:1022F00066696C650A004D3737004D333100496E11
:1023000076616C69642065787472756465720A0020
:10231000290A002E2E2E280054006F70656E00547E
:102320005249474745524544003A20007A5F6D6163
:1023300078007A5F6D696E00795F6D696E00785F15
:102340006D6178005265706F7274696E6720656E9A
:102350006473746F70207374617475730A00203A2B
:102360002073796E635F706C616E5F706F736974F8
:10237000696F6E0A00202063757272656E745F70FB
:102380006F736974696F6E3D003E2000646F5F6219
:102390006C6F636B696E675F6D6F76655F746F00FE
:1023A00020746F6F206C6F6E672065787472757320
:1023B000696F6E2070726576656E7465640A0020C0
:1023C000636F6C6420657874727573696F6E2070CA
:1023D000726576656E7465640A0020706F73697447
:1023E000696F6E5F7368696674203D200020686FB6
:1023F0006D655F6F6666736574203D200041786986
:10240000732000290A003C3C3C207365745F6178AE
:1024100069735F69735F61745F686F6D6528002021
:102420003A200A00202063757272656E745F706FC7
:10243000736974696F6E3D005D203D20003E206829
:102440006F6D655F6F66667365745B000000C84200
:10245000000000000000C842290A003E3E3E2073F2
:1024600065745F617869735F69735F61745F686FDA
:102470006D6528005761726E696E673A20486F6D0E
:10248000696E672042756D702044697669736F725A
:10249000203C20310A00020204290A003C3C3C2076
:1024A000686F6D65617869732800203A203E20418D
:1024B00046544552207365745F617869735F697330
:1024C0005F61745F686F6D650A00202063757272CA
:1024D000656E745F706F736974696F6E3D006D6DCA
:1024E0000A0052652D62756D703A20006D6D0A000C
:1024F0004D6F766520417761793A20006D6D0A0055
:10250000486F6D6520466173743A20000000C84230
:102510000000F0420000C8420000A0400000A040BF
:1025200000000040290A003E3E3E20686F6D656154
:102530007869732800290A0050726F62653A3A641C
:102540006F5F7A5F726169736528006465706C6F94
:10255000793A2000203A2050726F62653A3A7365EA
:10256000745F6465706C6F7965640A002020637520
:102570007272656E745F706F736974696F6E3D001F
:1025800050726F62653A3A70726F62655F646F771E
:102590006E5F746F5F7A00206D61783A00206D691C
:1025A0006E3A004178697320000000C8420000F0D4
:1025B000420000C8420000000000000000000000CF
:1025C0000053657474696E67732053746F72656429
:1025D00000290A002062797465733B2063726320CE
:1025E0000053657474696E67732053746F72656409
:1025F00020280048617264636F64656420446566E6
:1026000061756C742053657474696E6773204C6FC8
:10261000616465640020286D6D2900203B204C65B5
:1026200076656C696E67200020204D34323020536F
:10263000004175746F20426564204C6576656C6955
:102640006E670020460020480020204D31343520A0
:1026500053004D6174657269616C206865617475C1
:102660007020706172616D65746572730020204D19
:102670003134392043203B20556E69747320696ED4
:102680002043656C736975730A0054656D706572DB
:10269000617475726520556E69747300202047322D
:1026A00031203B004C696E65617220556E69747310
:1026B00000454550524F4D206461746173697A65DD
:1026C000206572726F722E0A00290A0020627974E6
:1026D00065733B2063726320002073746F726564BE
:1026E0002073657474696E677320726574726965AE
:1026F000766564202800202863616C63756C6174C2
:10270000656429210A0020213D2000454550524F93
:102710004D20435243206D69736D61746368202DB1
:10272000202873746F7265642920002053697A65CC
:102730003A2000496E6465783A2000000096430014
:10274000009643000020410000C8410000C842003C
:1027500000C8420000C8430000B442B80B0000B8F3
:102760000B00006400000040060000204D61726C08
:10277000696E3D563836290A00454550524F4D2066
:1027800076657273696F6E206D69736D61746368CD
:102790002028454550524F4D3D0024F4D43050C3BD
:1027A0008E20C2A24017828B7011127A910D816C1B
:1027B000D90AA861E108C7586607615143061E4B54
:1027C0005D05C145A7041A411104093D98037139FB
:1027D00031034036DB0265339102D4305402802E3F
:1027E0001D02632CEE01752AC501B028A001102737
:1027F00081018F2564012B244B01E0223401AC219F
:102800001F018D200D01801FFC00841EED00971D0F
:10281000DF00B81CD200E61BC600201BBC00641AF7
:10282000B200B219A8000A19A0006A189900D117BD
:10283000910040178B00B516840031167E00B31549
:1028400079003A157300C7146F0058146A00EE132C
:1028500066008813630025135E00C7125B006C12CC
:10286000570015125400C111510070114F00211171
:102870004B00D61049008D1047004610440002104E
:102880004200C00F4000800F3E00420F3C00060F88
:102890003B00CB0E3800930E37005C0E3500270E40
:1028A0003400F30D3200C10D3100900D3000600D89
:1028B0002E00320D2D00050D2C00D90C2B00AE0C76
:1028C0002900850C29005C0C2700350C27000E0C14
:1028D0002600E80B2400C40B2400A00B23007D0B72
:1028E00023005A0B2100390B2100180B2000F80A95
:1028F0001F00D90A1E00BB0A1E009D0A1D00800A87
:102900001D00630A1C00470A1B002C0A1B00110A49
:102910001A00F7091A00DD091900C4091900AB09EA
:102920001900920917007B091800630917004C0968
:10293000160036091600200916000A091500F508C8
:102940001500E0081400CC081400B8081400A4080E
:102950001400900813007D0812006B08130058083B
:102960001200460812003408110023081100120852
:10297000110001081100F0071000E0071000D00757
:102980001000C0071000B0070F00A107100091074A
:102990000E0083070F0074070F0065070E0057072E
:1029A0000E0049070E003B070D002E070E00200702
:1029B0000D0013070D0006070D00F9060C00ED06CB
:1029C0000D00E0060C00D4060C00C8060C00BC0686
:1029D0000C00B0060C00A4060B0099060C008D0636
:1029E0000B0082060B0077060B006C060B006106DD
:1029F0000A0057060B004C060A0042060A00380679
:102A00000A002E060A0024060A001A060A0010060A
:102A1000090007060A00FD050900F4050900EB0599
:102A20000900E2050900D9050900D0050900C7051C
:102A30000900BE050900B5050800AD050800A5059B
:102A400009009C050800940508008C050800840511
:102A500008007C050800740508006C050700650582
:102A600008005D050700560508004E0507004705EC
:102A700007004005080038050700310507002A0552
:102A80000700230507001C050600160507000F05B3
:102A900007000805060002050700FB040600F50410
:102AA0000700EE040600E8040600E2040700DB0469
:102AB0000600D5040600CF040600C9040600C304BE
:102AC0000600BD040600B7040600B1040500AC040E
:102AD0000600A6040600A00405009B040600950459
:102AE0000500900406008A040500850405008004A2
:102AF00006007A04050075040500700405006B04E7
:102B0000050066040500610405005C040500570427
:102B10000500520405004D04050048040500430467
:102B200005003E0404003A040500350405003004A5
:102B300004002C04050027040400230405001E04DF
:102B400004001A04040016040500110404000D0416
:102B50000400090405000404040000040400FC034C
:102B60000400F8030400F4030400F0030400EC0381
:102B70000400E8030400E4030400E0030400DC03B1
:102B80000400D8030400D4030400D0030400CC03E1
:102B90000400C8030300C503030024F404D9201B68
:102BA000C40C5C0E9804C4095F0265077101F4054A
:102BB000F900FB04B30048048700C103690058030F
:102BC000550003034500BE023A008402310053025F
:102BD0002A002902250004022000E4011C00C8018B
:102BE0001900AF011700980114008401130071014E
:102BF00010006101100051010E0043010D0036016B
:102C00000B002B010B0020010B00150109000C012A
:102C1000090003010800FB000800F3000800EB00B6
:102C20000700E4000600DE000600D8000600D2001F
:102C30000600CC000500C7000500C2000500BD006D
:102C40000400B9000400B5000400B1000400AD00A8
:102C50000400A9000400A5000300A20003009F00D7
:102C600004009B00030098000300950002009300FD
:102C70000300900003008D0002008B000300880019
:102C800002008600020084000300810002007F0031
:102C900002007D0002007B00020079000200770044
:102CA0000100760002007400020072000100710051
:102CB00002006F0002006D0001006C0002006A005B
:102CC0000100690002006700010066000100650064
:102CD0000100640002006200010061000100600068
:102CE00001005F0002005D0001005C0001005B006C
:102CF00001005A000100590001005800010057006E
:102D0000010056000100550001005400010053006D
:102D1000000053000100520001005100010050006A
:102D200001004F0001004E0000004E0001004D0068
:102D300001004C0001004B0000004B0001004A0064
:102D40000100490001004800000048000100470060
:102D5000010046000000460001004500000045005B
:102D60000100440001004300000043000100420054
:102D7000000042000100410000004100010040004D
:102D800001003F0000003F0001003E0000003E0047
:102D900001003D0000003D0001003C0000003C003F
:102DA00000003C0001003B0000003B0001003A0035
:102DB00000003A000100390000003900010038002D
:102DC0000000380000003800010037000000370024
:102DD000010036000000360000003600010035001A
:102DE0000000350000003500010034000000340010
:102DF0000000340001003300000033000000330005
:102E000001003200000032000000320001003100F9
:102E100000003100000031000100300000003000EF
:102E20000000300001002F0000002F0000002F00E4
:102E300000002F0001002E0000002E0000002E00D8
:102E400001002D0000002D0000002D0000002D00CD
:102E500001002C0000002C0000002C0000002C00C1
:102E600001002B0000002B0000002B0000002B00B5
:102E700001002A0000002A0000002A0000002A00A9
:102E8000010029000000290000002900000029009D
:102E90000000290001002800000028000000280090
:102EA0000000280000002800010027000000270083
:102EB0000000270000002700000027000100260076
:102EC000000026000000260000002600000026006A
:102ED000010025000000250000002500000025005D
:102EE000000025000000250001002400000024004F
:102EF0000000240000002400000024000100230042
:102F00000000230000002300000023000000230035
:102F10000000230000002300010022000000220026
:102F20000000220000002200000022000000220019
:102F3000010021000000210000002100000021000C
:102F400000002100000021000000210001002000FD
:102F500000002000000020000000200000002000F1
:102F600000002000000020000000200001001F00E1
:102F700000001F0000001F0000001F0000001F00D5
:102F800000001F0000001F0001001E0000001E00C6
:102F900000001E0000001E000000043700001E2973
:102FA0000000511B00005810000010090000CC0464
:102FB0000000780200004101000020436F756E742C
:102FC00020583A000045310045002C207379737475
:102FD000656D2073746F707065642120486561743D
:102FE00065725F49443A2000544845524D414C2097
:102FF00052554E4157415900546865726D616C20BD
:1030000052756E617761790048656174696E6720F9
:103010004661696C65640048656174696E67206625
:1030200061696C6564004572723A204D415854459F
:103030004D50004D415854454D502074726967679A
:1030400065726564004572723A204D494E54454D93
:1030500050004D494E54454D502074726967676564
:1030600072656400202F0020403A0020573A007C0F
:103070003C3E5E2B3D3F2F5B5D3B2C2A225C004398
:10308000616E6E6F74206F70656E20737562646917
:103090007220004D6564696120496E697420466143
:1030A000696C0053442063617264206F6B0A006F87
:1030B00070656E526F6F74206661696C65640A009A
:1030C000766F6C756D652E696E6974206661696CCA
:1030D00065640A004E6F20534420636172640A00E5
:1030E0000A4D3234004D3233202573002E0A006F12
:1030F00070656E206661696C65642C2046696C653C
:103100003A200046696C652073656C65637465647C
:103110000A002053697A653A200046696C65206F81
:1031200070656E65643A2000454E44205355425206
:103130004F5554494E450A002220706F73002220DB
:10314000706172656E743A2200535542524F555465
:10315000494E452043414C4C207461726765743A76
:10316000220053756263616C6C204F766572666CE9
:103170006F77004578636565646564206D617820CC
:10318000535542524F5554494E45206465707468FA
:103190003A0041425300504C41002E0A0044656CF5
:1031A0006574696F6E206661696C65642C20466980
:1031B0006C653A200046696C652064656C657465D1
:1031C000643A0057726974696E6720746F2066698B
:1031D0006C653A2000667265736800646F696E679B
:1031E000002066696C653A20004E6F7720002F61E1
:1031F00075746F25632E6700FFE0FFD1A4AFFFD089
:10320000FFFEFFE0FFD1AEA5FFD0FFFEFFE0FFD144
:103210001000FFFEFFD0FFE0FFC1FFD1E240A0C8D9
:10322000A6A22FF800238127AC00AFFF64A5FF649E
:10323000FF64A4FFD0FFFE026D61726C696E667759
:103240002E6F7267006275676669782D322E312E97
:1032500078001FFFFFFFFFFFFF600000000001FF7D
:10326000400000000000FF8000000000007F83CFCE
:1032700000000C303F87FF80000C301F86798000F3
:103280000C000F8C30C7838C30E78C30CFC7CC312B
:10329000F38C30DCECEC33B98C30D86C6C33198C9B
:1032A00030D06C0C33198C30D86C0C33198C30DC6A
:1032B0006C0E3B198C30CF7C079F198C30C77C0378
:1032C0008F194000000000000260000000000006AE
:1032D0001FFFFFFFFFFFF870012C0190012701B0D5
:1032E000012201C0011D01F001180110021301307B
:1032F000020E016002090190020401C002FF0000F9
:1033000003FA004003F5008003F000D003EB002037
:1033100004E6007004E100E004DC004005D700C0D2
:1033200005D2004006CD00D006C8008007C300309B
:1033300008BE00F008B900C009B400B00AAF00B080
:103340000BAA00D00CA500000EA000500F9B00C0DF
:103350001096005012910000148C00C0158700B028
:10336000178200B0197D00D01B7800001E7300404A
:10337000206E0090226900F024640040275F0090D6
:10338000295A00E02B5500102E500020304B001021
:10339000324600E033410090353C00103737007072
:1033A000383200A0392D00B03A2800A03B2300603D
:1033B0003C1E00103D1900903D1400103E0F00709F
:1033C0003E0A00C03E0500003F0000403FFBFF807A
:1033D0003FF6FFC03FF1FF2020506C616E6E6572BA
:1033E00042756666657242797465733A20002046BC
:1033F000726565204D656D6F72793A200020436FCC
:103400006D70696C65643A204A756C2020352032F5
:103410003032320A00204C6173742055706461743C
:1034200065643A20323032322D30372D3035207CF1
:1034300020417574686F723A206174736A750A006E
:103440004D61726C696E206275676669782D322EE7
:10345000312E780A0020536F6674776172652052AE
:10346000657365740A00205761746368646F672030
:1034700052657365740A002042726F776E206F7513
:10348000742052657365740A002045787465726E05
:10349000616C2052657365740A00506F77657255D0
:1034A000700A0073746172740A00473237004D313C
:1034B000303031006F6B006572726F722077726905
:1034C00074696E6720746F2066696C650A00446FCA
:1034D0006E6520736176696E672066696C652E0A79
:1034E000004D323900456E6473746F70730025535C
:1034F00020256320256320256320256300205A3A78
:103500000020593A0020583A00656E6473746F7059
:1035100073206869743A200000000A0B02090C0D40
:103520000E08070304010000000000000000000076
:10353000000000000000000000000000000000008B
:103540000000000012111000000000000000000048
:1035500000000000000000000000000000004D6FAF
:10356000766520246D6D00302E303235004D6F763B
:103570006520302E316D6D004D6F766520316D6D9B
:10358000004D6F76652031306D6D004D6F76652092
:1035900041786973004D6F7665202A004D6F76651E
:1035A000204000963192314368616E67652046691C
:1035B0006C616D656E7400556E6C6F616420466958
:1035C0006C616D656E74004C6F61642046696C615E
:1035D0006D656E7400507265686561742043757323
:1035E000746F6D00507265686561742024004261DB
:1035F000636B00486F6D696E67204661696C656436
:103600000001FF01290A005D005B002C20002C2036
:10361000002E2E2E2800646F5F686F6D696E675FE5
:103620006D6F766500205472696767657265642006
:103630006561726C792E00204E6F20747269676725
:1036400065722E002050726F6265206661696C2180
:10365000202D00534C4F570050726F62653A3A72FA
:10366000756E5F7A5F70726F6265006D656173750C
:103670007265645F7A3A200050726F62696E6720EB
:103680004661696C65640A0050726F62696E6720FA
:103690004661696C656400205A3A200020593A203E
:1036A0000042656420583A2000506F736974696F56
:1036B0006E204E6F7420526561636861626C650AAA
:1036C00000203A200A00202063757272656E745FD4
:1036D000706F736974696F6E3D005F72656C6174C1
:1036E000697665290A002C20002C20002C20002C53
:1036F00020002E2E2E280050726F62653A3A7072AA
:103700006F62655F61745F706F696E7400496E739C
:103710006572742066696C616D656E7420616E649B
:1037200020707265737320627574746F6E0A002264
:103730000A00556E6B6E6F776E20636F6D6D616EF4
:10374000643A202200204500205A00205900202001
:103750004D393220580053746570732070657220A3
:10376000756E697400DB0FC93F45BCDA3F8FB30249
:1037700040FCF0274056946140FE4B9B4084A5D806
:1037800040E0231841346A5641E859974164DBD53B
:10379000416E271742B4B75542CE1A9742C8AED5EC
:1037A00042B5885A43D40684BFA65FA7BF7443E0DE
:1037B000BF10B11AC01C2C58C0E8F697C0B849D643
:1037C000C04E4E17C124D355C1802497C1A0B5D592
:1037D000C1121A17C244AE55C2781797C26CACD545
:1037E000C267885AC320746F6F206C6F6E67206544
:1037F0007874727573696F6E2070726576656E7419
:1038000065640A0020636F6C642065787472757358
:10381000696F6E2070726576656E7465640A004823
:103820006F6D652025732573257320466972737447
:103830000020453A00205A3A0020593A00583A00F0
:103840006F6B0A00526573656E643A2000000022B7
:1038500000250028002B002E00310034000201005A
:1038600000050108010B0100002100240027002AA7
:10387000002D003000330001010000040107010A9F
:103880000105050505070508080808020202020AE5
:103890000A080804040404010101010101010103F3
:1038A00003030303030303040707070C0C0C0C0CAE
:1038B0000C0C0C0202020206060606060606060BA1
:1038C0000B0B0B0B0B0B0B01021020200808102018
:1038D000401020408002010201080402010102049C
:1038E000081020408080402010080402018004025B
:1038F00001804020100804020108040201010204B2
:103900000810204080010204081020408054494ED5
:1039100041322052656164792E005072696E74697B
:103920006E672E2E2E005072696E74205061757372
:1039300065640000C200A20011241FBECFEFD1E2D7
:10394000DEBFCDBF00E00CBF84B780931B1714BE51
:103950000FB6F894A895809160008861809360000C
:10396000109260000FBE13E0A0E0B2E0ECE2F1E6DE
:1039700002E00BBF02C007900D92AE3BB107D9F732
:1039800027E1AEEBB3E001C01D92AB31B207E1F726
:103990001CE1CBE9DCE100E006C021970109802FA2
:1039A000FE010F94312DCA39D10780E00807A9F72D
:1039B0000F94391C0D9485300C94000060912F02F7
:1039C00070913002072E000C880B990B0F94702613
:1039D0002AE037ED43E25CE30F94CF262091D9052E
:1039E0003091DA054091DB055091DC050F94CF262C
:1039F00060935F0270936002809361029093620211
:103A000008958091C607811104C08091BC078093FE
:103A1000DE08089580910E158823C1F081508093AF
:103A20000E15E8E3F5E1882351F08150990B2BE165
:103A3000289FF001299FF00D1124E259FA4E8BE1E5
:103A4000A3E5B5E101900D928A95E1F720910E155D
:103A5000211105C08091191580648093191581E0AA
:103A600090E0A0E0B0E0211103C080E090E0DC0134
:103A70008093B4079093B507A093B607B093B707A8
:103A80001092B90781E08093B20783E080935D02D2
:103A9000089581E08093BB08089582E08093BB087D
:103AA00008958F929F92AF92BF92CF92DF92EF9242
:103AB000FF92CF936B017C0120E030E0A9010F94CD
:103AC0006A2687FFA3C06DEB77E386E095EBA7013D
:103AD00096010F944C2D6B017C0120E030E040E218
:103AE00051E40F94CF2620E030E048EC52E40F94EC
:103AF000CF264B015C0120E030E040E251ECC701F1
:103B0000B6010F946A26181654F420E030E048EC11
:103B100052E4C701B6010F94732F87FD8BC020E0DC
:103B200030E0A901C701B6010F946A2687FF73C070
:103B300060E070E080EA90ECA50194010F944C2DB8
:103B400020E030E040E251E40F94282E0F94902EB4
:103B50006B017C01F7FC64C020E137E240E050E0FB
:103B60000F94B62CCA01B9012AE030E040E050E0E1
:103B70000F94B62C605D6093C505C701B60128EEB1
:103B800033E040E050E00F94B62C9AE0892E912C5F
:103B9000A12CB12CCA01B901A50194010F94B62C36
:103BA000605D6093C605C701B60124E630E040E0E1
:103BB00050E00F94B62CCA01B901A50194010F94ED
:103BC000B62C605D6093C7058EE28093C805C7017F
:103BD000B601A50194010F94B62CC62FCA01B901F4
:103BE000A50194010F94B62C605D6093C905C05D7A
:103BF000C093CA0585EC95E0CF91FF90EF90DF90E0
:103C0000CF90BF90AF909F908F9008956DEB77E32A
:103C100086E095E35CCF60E070E080EA90E48CCFD2
:103C2000F094E094D094C094C11CD11CE11CF11C10
:103C30006DE2A1CF20E030E0A901C701B6010F94E9
:103C40006A2687FF6AC060E070E080EA90ECA50118
:103C500094010F944C2D20E030E040E251E40F94A9
:103C6000282E0F94902E4B015C0120E030E0A9013A
:103C7000C701B6010F94732F87FD0BC020E030E021
:103C800040E251E4C701B6010F946A2660E287FD65
:103C900013C0B7FC47C0C501B40128EE33E040E0D3
:103CA00050E00F94B62CCA01B9012AE030E040E0A0
:103CB00050E00F94B62C605D6093C605C501B40159
:103CC00024E630E040E050E00F94B62C8AE0C82EA5
:103CD000D12CE12CF12CCA01B901A70196010F9456
:103CE000B62C605D6093C7058EE28093C805C50160
:103CF000B401A70196010F94B62CC62FCA01B901D1
:103D0000A70196010F94B62C605D6093C905C05D54
:103D1000C093CA0586EC95E06FCF60E070E080EA62
:103D200090E495CFB094A09490948094811C911CC1
:103D3000A11CB11C6DE2C0CFCF93DF93EC01CB018E
:103D4000BA010F9470260F94952E6883DF91CF915E
:103D50000895CF93DF93EC01CB01BA010F94702645
:103D600029EC38EC48EC5EE30F94282E20E030E09C
:103D700040E05FE30F944C2D0F94952E6883DF9104
:103D8000CF9108950C942635E091C60784E0E802AF
:103D9000F0011124ED50FA4F8091BC0790E093831D
:103DA000828308958F929F92AF92BF92CF92DF92BB
:103DB000EF92FF926B017C0120E030E0A9010F94AB
:103DC0006A2687FD6BC06DEB77E386E095E3A7017C
:103DD00096010F944C2D6B017C0120E030E040E215
:103DE00051E40F94CF2620E030E040E251E40F94FC
:103DF000CF264B015C0120E030E0A901C701B601EC
:103E00000F946A2620E030E040EA50E487FF04C0C7
:103E100020E030E040EA50ECC501B4010F944C2D95
:103E200020E030E040E251E40F94282E0F94902ED1
:103E30009B018BE237FF05C022273327261B370B58
:103E40008DE28093C605C90164E670E00F941E2DD3
:103E5000CB01EAE0F0E0BF010F941E2D805D80935E
:103E6000C705C901BF010F941E2D282FCB01BF012B
:103E70000F941E2D805D8093C8058EE28093C90546
:103E8000205D2093CA0586EC95E0FF90EF90DF90CF
:103E9000CF90BF90AF909F908F9008956DEB77E398
:103EA00086E095EB94CF8F929F92AF92BF92CF9284
:103EB000DF92EF92FF92CF936B017C0120E030E024
:103EC000A9010F946A2687FDC3C06DEB77E386E0F6
:103ED00095E3A70196010F944C2D6B017C0120E026
:103EE00030E0A9010F946A2687FFB7C0C701B60169
:103EF000905820E030E040E251E40F94CF2620E0DB
:103F000030E040E251E40F94CF2620E030E040EA78
:103F100050E40F944C2D20E030E040E251E40F9447
:103F2000282E0F94902E6B017C0160E280EAC81667
:103F300086E8D80681E0E806F1048CF0C701B601F6
:103F400020EA36E841E050E00F94B62CCA01B901EE
:103F50002AE030E040E050E00F94B62C605D6093C2
:103F6000C40560E280E1C81687E2D806E104F104E6
:103F70008CF0C701B60120E137E240E050E00F9439
:103F8000B62CCA01B9012AE030E040E050E00F94BD
:103F9000B62C605D6093C50560E288EEC81683E0CC
:103FA000D806E104F1048CF0C701B60128EE33E035
:103FB00040E050E00F94B62CCA01B9012AE030E08D
:103FC00040E050E00F94B62C605D6093C60560E25F
:103FD00084E6C816D104E104F1048CF0C701B601EF
:103FE00024E630E040E050E00F94B62CCA01B9015D
:103FF0002AE030E040E050E00F94B62C605D609322
:10400000C7058AE0882E912CA12CB12CC701B601DE
:10401000A50194010F94B62CC62FCA01B901A501C0
:1040200094010F94B62C605D6093C8058EE2809376
:10403000C905C05DC093CA0584EC95E0CF91FF909F
:10404000EF90DF90CF90BF90AF909F908F900895AA
:104050006DEB77E386E095EB3CCF20E030E040E28B
:1040600051E4C701B60149CF8F929F92AF92BF92A0
:10407000CF92DF92EF92FF92CF936B017C0120E011
:1040800030E0A9010F946A2687FD93C06DEB77E3BA
:1040900086E095E3A70196010F944C2D6B017C01FE
:1040A00020E030E040E251E40F94CF2620E030E001
:1040B0004AE754E40F94CF264B015C0120E030E046
:1040C000A901C701B6010F946A2620E030E040EA5A
:1040D00050E487FF04C020E030E040EA50ECC50126
:1040E000B4010F944C2D20E030E040E251E40F94F5
:1040F000282E0F94902E6B017C01C114D104E10491
:10410000F10409F45BC0F7FE59C0F094E094D09438
:10411000C094C11CD11CE11CF11C8DE28093C5052B
:10412000C701B60128EE33E040E050E00F94B62C12
:104130008AE0882E912CA12CB12CCA01B901A501CD
:1041400094010F94B62C605D6093C6058EE2809357
:10415000C705C701B60124E630E040E050E00F9407
:10416000B62CCA01B901A50194010F94B62C605D6B
:104170006093C805C701B601A50194010F94B62C40
:10418000C62FCA01B901A50194010F94B62C605D38
:104190006093C905C05DC093CA0585EC95E0CF91D9
:1041A000FF90EF90DF90CF90BF90AF909F908F9057
:1041B00008956DEB77E386E095EB6CCF80E2AECFB0
:1041C000CF93DF93EC01CB01BA010F94702620E06E
:1041D00030E040E251E40F94282E688379838A838B
:1041E0009B83DF91CF910895CF93DF93EC01CB01B7
:1041F000BA010F94702620E030E040E251E40F94C1
:10420000282E688379838A839B83DF91CF910895D9
:104210000F94702620E030E040E251E40F94282E05
:1042200042CE0F94702620E030E040E251E40F943B
:10423000282EB8CDCF93DF93EC01CB01BA010F94B8
:1042400070262AE037ED43E25DE30F94282E0F94A9
:10425000952E688379838A839B83DF91CF9108951C
:10426000CF93DF93EC01CB01BA010F9470262AE0C3
:1042700037ED43E25DE30F94282E688379838A83C8
:104280009B83DF91CF910895CF93DF93EC01CB0116
:10429000BA010F947026688379838A839B83DF91A8
:1042A000CF910895CF93DF93EC01CB01BA010F9426
:1042B0007026688379838A839B83DF91CF910895E9
:1042C000CF93DF93EC01CB01BA010F94702620E06D
:1042D00030E048EC52E40F94282E688379838A8377
:1042E0009B83DF91CF9108950F94702620E030E0FA
:1042F00048EC52E40F94282ED4CBCF93DF93EC01FB
:10430000CB01BA010F9470260F94902E79836883A5
:10431000DF91CF910895CF93DF93EC01CB01BA01E8
:104320000F94702620E030E04AE754E40F94282EE2
:10433000688379838A839B83DF91CF9108950F945B
:10434000702620E030E04AE754E40F94282E8CCE0B
:10435000FC0184910895FC0180810895E091780525
:10436000E63028F581E08E0F809378054091B40700
:104370005091B5076091B6077091B7072091B907C2
:104380009091B1078091CD0739E0E39FF0011124AE
:10439000ED5CFA4FA091CE14B091CF14B183A083FD
:1043A000428353836483758326839783808708952C
:1043B000FC01A081B1811C92A281B3818C918F5F9D
:1043C0008C930280F381E02D90818CE0989F800D8A
:1043D0001124E0EDF4E113AE84AF0895009751F09D
:1043E000FC0180E09191992331F0907C9038D1F3D9
:1043F0008F5FF8CF80E0089590E080E0089590E02E
:1044000080E00895CF92DF92EF92FF92CF93C82F72
:104410000F94BD0F6B017C0124EA30E74DE75FE3A9
:1044200060911A0270911B0280911C0290911D02F2
:104430000F946A2687FD18C08AEF90E0A0E0B0E0F4
:104440008C0D9D1DAE1DBF1D8093190590931A05FF
:10445000A0931B05B0931C05C0931002CF91FF9051
:10446000EF90DF90CF90089580E090E0DC01E8CFFE
:10447000CF92DF92EF92FF920F931F930F94BD0F95
:104480000091EF041091F0042091F1043091F204B6
:104490006B017C01C01AD10AE20AF30A9701860176
:1044A00037FD11C02091EE0420952093EE046A544C
:1044B0007C4F8F4F9F4F6093EF047093F004809375
:1044C000F1049093F20481E09091EE04911101C007
:1044D00080E01F910F91FF90EF90DF90CF900895B3
:1044E0000F9470260F94902ECB010C94EBDE0F945A
:1044F000702629EC38EC48EC5EE30F94282E20E07F
:1045000030E040E05FE30F944C2D0F94952E862F02
:104510000C9442DF6DE67CE482E00D94A9196FE60D
:104520007CE481E00D94A91961E77CE480E00D94BE
:10453000A91961E27AE483E00D94A9190E9457FF5A
:104540001092BC0810925C020E940F78882351F0F0
:104550008091191582FD06C081E699E09093690764
:10456000809368070C94F7DC0F9470260F94952EB7
:10457000862F0C9420DF84E00D943F0D83E00D9492
:104580003F0D82E00D943F0D9091E50581E0892774
:104590000C94507DCF93DF9300D01F92CDB7DEB740
:1045A0000F94952E0F946E2669837A838B839C8358
:1045B000CE0101960E9442DD0F900F900F900F9058
:1045C000DF91CF9108950F9470262AE037ED43E2F2
:1045D0005DE30F94282EDECFCF92DF92EF92FF9211
:1045E000CF93DF9300D01F92CDB7DEB76B017C0174
:1045F00020E030E0A9010F946A2687FD1BC06DEB17
:1046000077E386E095E3A70196010F944C2D69832B
:104610007A838B839C83CE0101960E9442DD0F90AA
:104620000F900F900F90DF91CF91FF90EF90DF9060
:10463000CF9008956DEB77E386E095EBE4CF0F9490
:1046400070262AE037ED43E25DE30F94282EC4CFB5
:104650000F947026C1CFCF92DF92EF92FF926B0141
:104660007C0120E030E0A9010F946A2687FD26C076
:104670006DEB77E386E095E3A70196010F944C2D4F
:104680006B017C0120E030E0A9010F946A2620E054
:1046900030E040E05FE387FF04C020E030E040E02E
:1046A0005FEBC701B6010F944C2D0F94902ECB01F8
:1046B000FF90EF90DF90CF900C9441DE6DEB77E3AD
:1046C00086E095EBD9CF0F947026C5CF0C9463C2CA
:1046D0000C9463C20C9415C20C9415C20C9415C2B0
:1046E0000C9415C2EF92FF920F931F93CF93DF9319
:1046F000EC018B017A018A859B858617970731F03B
:10470000888199810F94C9121B870A87B701888114
:1047100099810F941C0B2E813F81820F932F911D45
:104720009F838E8390E080E0DF91CF911F910F9166
:10473000FF90EF9008959F92AF92BF92CF92DF9239
:10474000EF92FF920F931F93CF93DF93EC018B01B6
:10475000942EA52E8A859B858617970731F0888130
:1047600099810F94C9121B870A87888599850196BC
:1047700049F5BC800A818E81080FC880D980D60196
:104780005596ED91FC91C6011995B80EE92CFA2CBD
:1047900010E0F70121917F01211127C08E819F81B7
:1047A000810F911D9F838E8390E080E0DF91CF91F8
:1047B0001F910F91FF90EF90DF90CF90BF90AF903F
:1047C0009F9008950E811F81692D7A2D888199818E
:1047D0000F941C0B800F912F911D28853985281768
:1047E000390738F681E090E0E1CF4B2D602FC6010C
:1047F0000F942113080F180FCCCFDF92EF92FF9286
:104800000F931F93CF93DF93EC01D62E1CAD0BAD0E
:104810007C0184E0E80EF11CE98DFA8DC701199541
:10482000412F480F2D2D602FC7010F9421139BADF1
:10483000890F8BAF81E090E0DF91CF911F910F91B5
:10484000FF90EF90DF9008950F931F93CF938C010B
:10485000C62F84E193E00E94717AC8010E94717AA8
:104860008AE30E946A7A80E38C0F0E946A7A8AE067
:10487000CF911F910F910C946A7A8091BC0790910F
:10488000BD070C9406C2EF92FF920F931F93CF9334
:10489000DF9300D000D000D01F921F92CDB7DEB7BB
:1048A0007C012091BA07422F022E000C550B8091FB
:1048B000BB07833099F1843051F183E69CE05F932C
:1048C0002F939F938F938E010F5F1F4F1F930F9313
:1048D0000F940326C7010E9406C24FE350E0B801BF
:1048E0008AE697E00F946B300F900F900F900F9027
:1048F0000F900F902B960FB6F894DEBF0FBECDBF72
:10490000DF91CF911F910F91FF90EF9008958FE667
:104910009CE027FDD4CF8AE59CE0D1CF88E79CE0DE
:10492000CECF8091A7089091A808ADCFE091C6079F
:1049300084E0E802F0011124ED50FA4F808191816A
:10494000A2CF6F927F928F929F92AF92BF92CF929F
:10495000DF92EF92FF920F931F93CF93DF93CDB728
:10496000DEB72C970FB6F894DEBF0FBECDBF3B016C
:1049700040E050E068EC72E44D835E836F8378879B
:1049800040E050E060EA70E449875A876B877C8793
:104990008130A9F1823009F466C020E030E040E0C7
:1049A00050E460916B0270916C0280916D02909165
:1049B0006E020F944C2D4B018C0120E030E048EC4E
:1049C00052E40F94732F181624F4812C912C08ECC8
:1049D00012E4F301A084B184C284D3849401A801B9
:1049E000B501C6010F94732F181614F05401680115
:1049F000C501D60189839A83AB83BC8357C0BE01AE
:104A0000675F7F4FC30108960E9444E9E0906B0204
:104A1000F0906C0200916D0210916E02F3012481FE
:104A20003581468157816081718182819381FE0148
:104A300035966F010E94D2E70E9434D72C960FB6AC
:104A4000F894DEBF0FBECDBFDF91CF911F910F91C4
:104A5000FF90EF90DF90CF90BF90AF909F908F909E
:104A60007F906F900895F3012085318542855385AD
:104A700060916B0270916C0280916D0290916E0258
:104A80000F944C2D6B017C0120E030E048EC52E4A7
:104A90000F946A2687FD06C0C12CD12C88ECE82E25
:104AA00082E4F82EC982DA82EB82FC82BE01675F63
:104AB0007F4FCE010196A8CF2F923F924F925F92E7
:104AC0006F927F928F929F92AF92BF92CF92DF921E
:104AD000EF92FF920F931F93CF93DF9300D000D0FC
:104AE000CDB7DEB70F94BD0F009143071091440777
:104AF0002091450730914607011511052105310523
:104B000009F00AC32091BC14222309F44AC0E091A1
:104B1000BA1421502093BC1421E02E0F2093BA1414
:104B20003091BD14231302C01092BA1424E0E29F06
:104B3000F0011124E254FB4E008111812281338166
:104B400000933F071093400720934107309342079B
:104B5000600F711F811D911D60934307709344077F
:104B600080934507909346078091410790914207B3
:104B7000892BB9F08FB78E83F89420903F0730903F
:104B800040072101712C612C0091410710914207CF
:104B9000809153028532F1F08F3F09F495C09E81D8
:104BA0009FBF26960FB6F894DEBF0FBECDBFDF9134
:104BB000CF911F910F91FF90EF90DF90CF90BF901A
:104BC000AF909F908F907F906F905F904F903F90AD
:104BD0002F900895E7E3F2E394919D8397FDDFCF53
:104BE00085E20F9460028D81882321F09D819230AF
:104BF00009F0BCC14801B12CA12C60E072E18AE748
:104C000090E0A50198010F94B62C29833A834B8339
:104C10005C8369017A0121E0C21AD108E108F10838
:104C20008FEFC816D104E104F10409F00CF46EC151
:104C300060E472E48FE090E0A50198010F94B62C37
:104C400069017A0191E0C91AD108E108F1082D81C2
:104C5000223009F00FC18FEFC816D104E104F1042E
:104C600009F00CF4BFC260E970ED83E090E0A501AB
:104C700098010F94B62C69017A0191E0C91AD10804
:104C8000E108F10883E02FEFC216D104E104F1043A
:104C900009F00CF4A0C268E478EE81E090E0A50190
:104CA00098010F94B62C69017A0181E0C81AD108E5
:104CB000E108F1089FEFC916D104E104F10411F0F5
:104CC0000CF0FCC084E087C285E280935302E7E3E6
:104CD000F2E324912D83822F2F3F09F460CF2230FD
:104CE00009F468C058F4222379F1213009F444C052
:104CF00087FD55CF85E20F94600278CF9D81943077
:104D000009F49AC008F478C0953091F71092200108
:104D1000109221018091210188608093210180916E
:104D20002101816080932101E6EAF8E3E491F0E05B
:104D3000EE0FFF1FE35BF74C85919491ECEEF8E3E7
:104D4000E491E09380054CCF14BC15BC84B582601F
:104D500084BD85B5816085BDE6EAF8E3E491F0E0C5
:104D6000EE0FFF1FE35BF74C85919491ECEEF8E3B7
:104D7000E491E093840534CF10928000109281007A
:104D800080918100886080938100809181008160A2
:104D900080938100E6EAF8E3E491F0E0EE0FFF1F74
:104DA000E35BF74C85919491ECEEF8E3E491E093AA
:104DB000830516CF1092B0001092B1008091B00020
:104DC00082608093B0008091B10081608093B100D7
:104DD000E6EAF8E3E491F0E0EE0FFF1FE35BF74C47
:104DE000859194919093380780933707ECEEF8E320
:104DF000E491E0933907F4CE109290001092910064
:104E000080919100886080939100809191008160F1
:104E100080939100E6EAF8E3E491F0E0EE0FFF1FE3
:104E2000E35BF74C85919491ECEEF8E3E491E09329
:104E3000820523E02D83D4CE1092A0001092A10011
:104E40008091A10088608093A1008091A100816081
:104E50008093A100E6EAF8E3E491F0E0EE0FFF1F93
:104E6000E35BF74C85919491ECEEF8E3E491E093E9
:104E70008105B6CE8FEFC816D104E104F10409F024
:104E80000CF472C068E478EE81E090E0A50198012E
:104E90000F94B62C69017A0191E0C91AD108E10892
:104EA000F1082D81222309F462C12FEFC216D1042B
:104EB000E104F10411F00CF063C104CF64E274EF7B
:104EC00080E090E0A50194010F94B62C69017A016D
:104ED00081E0C81AD108E108F10885E09FEFC91602
:104EE000D104E104F10409F008F475C162E17AE744
:104EF00080E090E0A50194010F94B62C69017A013D
:104F000081E0C81AD108E108F1084CC181E02D8187
:104F1000211161C195B5987F892B85BD2FEF3FEF9A
:104F2000A90145284628472809F048C09D819230AC
:104F300009F4E2C00CF0C9C0992309F4CEC0913045
:104F400009F02DCED0928900C0928800209391055F
:104F500030939205409393055093940580916F0090
:104F6000826080936F001BCE82E0D1CFB12CA12C48
:104F700060E072E18AE790E0A50198010F94B62CF9
:104F800069017A0181E0C81AD108E108F108C11469
:104F9000D10491E0E906F104F4F491E02D8121308F
:104FA00059F580918100887F892B809381002FEFB4
:104FB0003FEFA90145284628472821F29801220FF2
:104FC000331FD1010F94E22C28EE33E040E050E093
:104FD0000F94942CABCF68E478EE81E090E0A501CB
:104FE00098010F94B62C69017A0181E0C81AD108A2
:104FF000E108F10893E0D2CF8D818330F9F48091FC
:105000009100887F892B809391002FEF3FEFA901BA
:1050100045284628472891F6D0929900C0929800DA
:1050200020938D0530938E0540938F055093900506
:1050300080917100826080937100B1CD2D81243008
:1050400001F58091A100887F892B8093A1002FEF2B
:105050003FEFA90145284628472809F0AFCFD09255
:10506000A900C092A8002093890530938A05409337
:105070008B0550938C058091720082608093720042
:105080008ECD8D81853009F049CF80912101887FB7
:10509000892B809321012FEF3FEFA9014528462856
:1050A000472809F08BCFD0922901C0922801209384
:1050B0008505309386054093870550938805809138
:1050C00073008260809373006ACD8D81843039F2E1
:1050D0000CF4A2CF853039F362CDC7BC209395057F
:1050E00030939605409397055093980580916E00F4
:1050F000826080936E0053CDC092B30020933A0734
:1051000030933B0740933C0750933D0780917000DC
:1051100082608093700043CD601B710B820B930BF8
:1051200097FD3FCD4098109243071092440710928C
:1051300045071092460735CDC980DA80EB80FC80A8
:105140009AE0F594E794D794C7949A95D1F721E023
:10515000C21AD108E108F10885E0DCCE8FEFC8164D
:10516000D104E104F10409F038F784E0D3CE83E000
:105170009FEFC916D104E104F10409F00CF4CACE82
:1051800062E17AE780E090E0A50194010F94B62CEB
:1051900069017A0181E0C81AD108E108F1089D810E
:1051A0009923E1F286E02FEFC216D104E104F10465
:1051B00091F088F0C980DA80EB80FC808AE0F59479
:1051C000E794D794C7948A95D1F791E0C91AD1088A
:1051D000E108F10887E09091B100987F892B8093D6
:1051E000B1009CCE82E0F7CF0F931F93CF93DF9354
:1051F0008C01EB019091BC142091BD14921304C05A
:105200005BDC0E944EC3F6CF8091BB1434E0839FD9
:10521000F0011124E254FB4E11830083D383C28337
:105220009F5F9093BC148F5F281739F08093BB1455
:10523000DF91CF911F910F9108951092BB14F8CF79
:1052400063E972E084E690E0CFDF70E060E08AE03E
:1052500090E0CADF6AEB72E084E690E0C5CF0E947E
:1052600065D8EECF8111ECCF68E270E080E991E083
:10527000BBCF0E94C7BEF6CF0E94BEE7F3CFCF934D
:10528000DF93C091A708D091A808209729F16091D9
:10529000A3087091A4088091A5089091A6080F9486
:1052A000902E6E5F7F4F24976C177D07ACF4709340
:1052B0000A06609309060F94BD0F605E714B8F4F15
:1052C0009F4F60930B0670930C0680930D0690938E
:1052D0000E06DF91CF91089510920B0610920C06E6
:1052E00010920D0610920E06F4CFC9CF8091A70838
:1052F0009091A8080C94B377CF93DF93CDB7DEB726
:1053000020E2488559856F818E810F94AF0ADF9125
:10531000CF910895282F1092C4078091B4079091DF
:10532000B507A091B607B091B707B7FF08C01092B4
:10533000B4071092B5071092B6071092B707809184
:105340007F05882331F08091B4078093B8071092CD
:10535000B2078091B1071816FCF4082E000C990BC7
:10536000821B91092091B807022E000C330B2817DD
:10537000390794F097FF02C090E080E08093B8076F
:10538000092E000CAA0BBB0B8093B4079093B507B2
:10539000A093B607B093B7078091B8076623A9F02A
:1053A0009091B907891714F48093B9072091B90730
:1053B000022E000C330B2C5F3F4F482F082E000CA1
:1053C000550B241735071CF484508093B9070895B2
:1053D0000F931F93522F2091CE143091CF14281782
:1053E000390731F11092E7039093CF148093CE14D4
:1053F0008B0130E020E00093B4071093B5072093B1
:10540000B6073093B7074093B9075093B1078A574F
:10541000924421F41092CD071092780582E0809397
:105420005D0281E08093B20710927C0510927B05AB
:105430001F910F910895CF93DF93EC010E94AE214D
:1054400020E040E070E060E0CE01DF91CF91C0CF7E
:1054500020E040E070E060E088E199E4B9DF81E0BD
:105460008093CD071092E9031092E803089520E09D
:1054700040E070E060E089E992E2AACF0E9411C2A8
:10548000882339F020E040E070E060E08EEC97E3A4
:105490009FCFEDCFCF93C1E0C093CD07FC018081BA
:1054A0009181A281B38180931A0290931B02A093F1
:1054B0001C02B0931D0220E040E070E060E08091AB
:1054C000AF079091B00784DFC093E703CF910895B1
:1054D000CF93DF9300D01F92CDB7DEB78DEC9CEC5D
:1054E000ACECBCE389839A83AB83BC83CE01019689
:1054F000D1DF0F900F900F900F90DF91CF91089513
:10550000CF93DF9300D01F92CDB7DEB78DEC9CEC2C
:10551000ACECBDE389839A83AB83BC83CE01019657
:10552000B9DF0F900F900F900F90DF91CF910895FA
:10553000CF93DF9300D01F92CDB7DEB780E090E02D
:10554000A0E8BFE389839A83AB83BC83CE01019635
:10555000A1DF0F900F900F900F90DF91CF910895E2
:10556000CF93DF9300D01F92CDB7DEB780E090E0FD
:10557000A0E2B1E489839A83AB83BC83CE01019618
:1055800089DF0F900F900F900F90DF91CF910895CA
:1055900020E040E070E060E08AE792E419CF1092EA
:1055A000DE080E94D6BCF4CFCF93DF93C091BC0736
:1055B000C7FD1FC084E0C802E0011124FE01ED50C8
:1055C000FA4F80819181181619063CF4823E9105AC
:1055D00014F081EE90E00E9406C2CD50DA4F8A812D
:1055E0009B818F3F910519F010F08FEF90E0809331
:1055F000DE08DF91CF91CCCF86EB93E10E94E1B141
:10560000C7DF0C9457FFC4DF88E39FE090936907DE
:105610008093680708950E94E6740F94FF15B8CF31
:10562000611160935E024093CE078C3008F039C060
:10563000E82F880FFF0B8827EF5DF44D8F4F0D94F7
:10564000312D522B2D2B372B552B3A2B3D2B402B0D
:105650004C2B432B512B462B492B8FE592E421E019
:105660002093CD0720E040E070E060E0B1CE85E619
:1056700092E4F5CF88E692E4F2CF8BE692E4EFCFA6
:105680008EE692E4ECCF81E792E4E9CF84E792E4FE
:10569000E6CF87E792E4E3CF1092BB088CE690E474
:1056A000DECF76CF8CE592E4DACF82E692E4D7CFF4
:1056B000CF930E9465D80E94C7BEC82F882319F0D7
:1056C00080E00E9433BE8C2FCDDDCF9161CF86EC80
:1056D0009AE090936907809368075ACF2F923F9280
:1056E0004F925F926F927F928F929F92AF92BF92F2
:1056F000CF92DF92EF92FF920F931F93CF93DF939E
:1057000000D000D0CDB7DEB71C017A8369832B832C
:105710003C834D835E832701380181E08093B2078B
:105720000E94AE2183E080935D0230927705209243
:10573000760589819A8190937505809374058B8194
:105740009C81AD81BE818093700590937105A0937B
:105750007205B093730540926C0550926D0560928E
:105760006E0570926F05F12CE12CC092B407D092B7
:10577000B507E092B607F092B707B092CF14A092A7
:10578000CE1490926B0580926A058C8D809369058A
:1057900026960FB6F894DEBF0FBECDBFDF91CF9136
:1057A0001F910F91FF90EF90DF90CF90BF90AF903F
:1057B0009F908F907F906F905F904F903F902F9031
:1057C0000895CF93DF93C0917805CC23B1F0C150F9
:1057D000C093780589E0C89FE0011124CD5CDA4FC1
:1057E0006A817B812F814E8188819981F1DD888555
:1057F0008093CD07DF91CF910895DF91CF91C8CEEF
:105800006F927F928F929F92AF92BF92CF92DF92D0
:10581000EF92FF920F931F93CF93DF9361E081E0AC
:1058200079DDC091B9076C2E85E0782E7C0E9EE85C
:10583000E92E90E1F92ED5E0DC1B21EAC22E20E111
:10584000D22E14E01C1B03E00C1B35ECA32E30E120
:10585000B32E82E0982E9C1A81E0882E8C1AC111FA
:1058600035C08091B8078823B9F080915D02882304
:1058700061F0662D619581E09091B807911180E00B
:1058800024E049EC50E10F94AF0ACF5FC711E7CF96
:1058900086E08093B1070BC08091B3071092B307E5
:1058A000882319F38EDF8091B2078823F1F2DF910C
:1058B000CF911F910F91FF90EF90DF90CF90BF900D
:1058C000AF909F908F907F906F900895C13009F5B1
:1058D0008091B807813079F080915D028823A9F228
:1058E00081E09091B807913009F080E023E04BE827
:1058F00055E3682DC8CF8091B3071092B307882372
:1059000059F389E19DE297DD8091B207882321F365
:10591000CECFC23009F073C09091B807923071F0C9
:1059200080915D02882309F4B0CF81E0923009F0C4
:1059300080E020E24BEB50E1692DA5CF8091B307C9
:105940001092B307882361F3B0926907A0926807A9
:105950008091B207882321F3AACF8091B8078330C2
:1059600081F080915D02882309F48FCF81E09091CE
:10597000B807933009F080E023E04EEA50E1602F51
:1059800082CF8091B3071092B307882351F385E546
:1059900097E551DD8091B207882319F388CF909164
:1059A000B807943071F080915D02882309F46DCFBF
:1059B00081E0943009F080E020E242E950E1612F7B
:1059C00062CF8091B3071092B307882361F3D0921E
:1059D0006907C09268078091B207882321F367CFD7
:1059E0008091B3071092B3078823A9F0F09269075A
:1059F000E09268078091B207882369F058CFC330DE
:105A000009F4ABCFC43059F2C53009F03ECF9091C4
:105A1000B807953029F380915D02882309F435CFCA
:105A200081E0953009F080E020E24DE750E16D2FF4
:105A30002ACFBF92CF92DF92EF92FF920F931F93E4
:105A4000CF93DF9361E081E065DCC091B90785E029
:105A5000E82EEC0ED4E0DC1B01E092E0F92E13E01E
:105A60001C1BDF2CDC1AC02ECC1ABC2EB194C11129
:105A70002FC08091B8078823B1F080915D02882300
:105A800059F081E09091B807911180E024E046E759
:105A900050E16B2D0F94AF0ACF5FEC12E8CF85E099
:105AA0008093B1070BC08091B3071092B30788238E
:105AB00021F387DE8091B2078823F9F2DF91CF913D
:105AC0001F910F91FF90EF90DF90CF90BF900895BE
:105AD000C13059F51092C6071092CA071092C90733
